{
  "contractName": "VendingMachine",
  "abi": [
    {
      "inputs": [],
      "payable": false,
      "stateMutability": "nonpayable",
      "type": "constructor"
    },
    {
      "constant": true,
      "inputs": [
        {
          "internalType": "address",
          "name": "",
          "type": "address"
        }
      ],
      "name": "cupcakeBalances",
      "outputs": [
        {
          "internalType": "uint256",
          "name": "",
          "type": "uint256"
        }
      ],
      "payable": false,
      "stateMutability": "view",
      "type": "function"
    },
    {
      "constant": true,
      "inputs": [],
      "name": "owner",
      "outputs": [
        {
          "internalType": "address",
          "name": "",
          "type": "address"
        }
      ],
      "payable": false,
      "stateMutability": "view",
      "type": "function"
    },
    {
      "constant": false,
      "inputs": [
        {
          "internalType": "uint256",
          "name": "amount",
          "type": "uint256"
        }
      ],
      "name": "refill",
      "outputs": [],
      "payable": false,
      "stateMutability": "nonpayable",
      "type": "function"
    },
    {
      "constant": false,
      "inputs": [
        {
          "internalType": "uint256",
          "name": "amount",
          "type": "uint256"
        }
      ],
      "name": "purchase",
      "outputs": [],
      "payable": true,
      "stateMutability": "payable",
      "type": "function"
    }
  ],
  "bytecode": "0x608060405234801561001057600080fd5b50336000806101000a81548173ffffffffffffffffffffffffffffffffffffffff021916908373ffffffffffffffffffffffffffffffffffffffff1602179055506064600160003073ffffffffffffffffffffffffffffffffffffffff1673ffffffffffffffffffffffffffffffffffffffff168152602001908152602001600020819055506104e2806100a56000396000f3fe60806040526004361061003f5760003560e01c80638da5cb5b14610044578063ca9d07ba1461009b578063e18a7b92146100d6578063efef39a11461013b575b600080fd5b34801561005057600080fd5b50610059610169565b604051808273ffffffffffffffffffffffffffffffffffffffff1673ffffffffffffffffffffffffffffffffffffffff16815260200191505060405180910390f35b3480156100a757600080fd5b506100d4600480360360208110156100be57600080fd5b810190808035906020019092919050505061018e565b005b3480156100e257600080fd5b50610125600480360360208110156100f957600080fd5b81019080803573ffffffffffffffffffffffffffffffffffffffff1690602001909291905050506102a0565b6040518082815260200191505060405180910390f35b6101676004803603602081101561015157600080fd5b81019080803590602001909291905050506102b8565b005b6000809054906101000a900473ffffffffffffffffffffffffffffffffffffffff1681565b6000809054906101000a900473ffffffffffffffffffffffffffffffffffffffff1673ffffffffffffffffffffffffffffffffffffffff163373ffffffffffffffffffffffffffffffffffffffff1614610250576040517f08c379a000000000000000000000000000000000000000000000000000000000815260040180806020018281038252601a8152602001807f4f6e6c7920746865206f776e65722063616e20726566696c6c2e00000000000081525060200191505060405180910390fd5b80600160003073ffffffffffffffffffffffffffffffffffffffff1673ffffffffffffffffffffffffffffffffffffffff1681526020019081526020016000206000828254019250508190555050565b60016020528060005260406000206000915090505481565b670de0b6b3a7640000810234101561031b576040517f08c379a00000000000000000000000000000000000000000000000000000000081526004018080602001828103825260278152602001806104516027913960400191505060405180910390fd5b80600160003073ffffffffffffffffffffffffffffffffffffffff1673ffffffffffffffffffffffffffffffffffffffff1681526020019081526020016000205410156103b3576040517f08c379a00000000000000000000000000000000000000000000000000000000081526004018080602001828103825260368152602001806104786036913960400191505060405180910390fd5b80600160003073ffffffffffffffffffffffffffffffffffffffff1673ffffffffffffffffffffffffffffffffffffffff1681526020019081526020016000206000828254039250508190555080600160003373ffffffffffffffffffffffffffffffffffffffff1673ffffffffffffffffffffffffffffffffffffffff168152602001908152602001600020600082825401925050819055505056fe596f75206d75737420706179206174206c65617374203120455448207065722063757063616b654e6f7420656e6f7567682063757063616b657320696e2073746f636b20746f20636f6d706c6574652074686973207075726368617365a265627a7a72315820b3fb3a60102cddf9f2b19c986863e749d8bd2646361a93dd61553ec063facfc064736f6c63430005100032",
  "source": "pragma solidity 0.5.16;\n\ncontract VendingMachine {\n\n    // Declare state variables of the contract\n    address public owner;\n    mapping (address => uint) public cupcakeBalances;\n\n    // When 'VendingMachine' contract is deployed:\n    // 1. set the deploying address as the owner of the contract\n    // 2. set the deployed smart contract's cupcake balance to 100\n    constructor() public {\n        owner = msg.sender;\n        cupcakeBalances[address(this)] = 100;\n    }\n\n    // Allow the owner to increase the smart contract's cupcake balance\n    function refill(uint amount) public {\n        require(msg.sender == owner, \"Only the owner can refill.\");\n        cupcakeBalances[address(this)] += amount;\n    }\n\n    // Allow anyone to purchase cupcakes\n    function purchase(uint amount) public payable {\n        require(msg.value >= amount * 1 ether, \"You must pay at least 1 ETH per cupcake\");\n        require(cupcakeBalances[address(this)] >= amount, \"Not enough cupcakes in stock to complete this purchase\");\n        cupcakeBalances[address(this)] -= amount;\n        cupcakeBalances[msg.sender] += amount;\n    }\n}\n",
  "sourcePath": "/Users/zhangtiancai/Documents/ZhangTalent/geth/geth_learn/contracts/VendingMachine.sol",
  "compiler": {
    "name": "solc",
    "version": "0.5.16+commit.9c3226ce.Emscripten.clang"
  },
  "schemaVersion": "3.4.13",
  "updatedAt": "2023-05-15T03:17:27.803Z",
  "networkType": "ethereum",
  "devdoc": {
    "methods": {}
  },
  "userdoc": {
    "methods": {}
  }
}